{
  "_format": "hh-sol-artifact-1",
  "contractName": "TAFA",
  "sourceName": "contracts/TAFA.sol",
  "abi": [
    {
      "inputs": [
        {
          "internalType": "uint256",
          "name": "initialSupply",
          "type": "uint256"
        },
        {
          "internalType": "string",
          "name": "name",
          "type": "string"
        },
        {
          "internalType": "string",
          "name": "symbol",
          "type": "string"
        }
      ],
      "stateMutability": "nonpayable",
      "type": "constructor"
    },
    {
      "inputs": [
        {
          "internalType": "address",
          "name": "spender",
          "type": "address"
        },
        {
          "internalType": "uint256",
          "name": "allowance",
          "type": "uint256"
        },
        {
          "internalType": "uint256",
          "name": "needed",
          "type": "uint256"
        }
      ],
      "name": "ERC20InsufficientAllowance",
      "type": "error"
    },
    {
      "inputs": [
        {
          "internalType": "address",
          "name": "sender",
          "type": "address"
        },
        {
          "internalType": "uint256",
          "name": "balance",
          "type": "uint256"
        },
        {
          "internalType": "uint256",
          "name": "needed",
          "type": "uint256"
        }
      ],
      "name": "ERC20InsufficientBalance",
      "type": "error"
    },
    {
      "inputs": [
        {
          "internalType": "address",
          "name": "approver",
          "type": "address"
        }
      ],
      "name": "ERC20InvalidApprover",
      "type": "error"
    },
    {
      "inputs": [
        {
          "internalType": "address",
          "name": "receiver",
          "type": "address"
        }
      ],
      "name": "ERC20InvalidReceiver",
      "type": "error"
    },
    {
      "inputs": [
        {
          "internalType": "address",
          "name": "sender",
          "type": "address"
        }
      ],
      "name": "ERC20InvalidSender",
      "type": "error"
    },
    {
      "inputs": [
        {
          "internalType": "address",
          "name": "spender",
          "type": "address"
        }
      ],
      "name": "ERC20InvalidSpender",
      "type": "error"
    },
    {
      "inputs": [],
      "name": "TAFA__NotOwner",
      "type": "error"
    },
    {
      "inputs": [],
      "name": "TAFA__PresaleDenominatorNotSet",
      "type": "error"
    },
    {
      "inputs": [],
      "name": "TAFA__PresaleNotOpen",
      "type": "error"
    },
    {
      "inputs": [],
      "name": "TAFA__PresalePriceNotSet",
      "type": "error"
    },
    {
      "anonymous": false,
      "inputs": [
        {
          "indexed": true,
          "internalType": "address",
          "name": "owner",
          "type": "address"
        },
        {
          "indexed": true,
          "internalType": "address",
          "name": "spender",
          "type": "address"
        },
        {
          "indexed": false,
          "internalType": "uint256",
          "name": "value",
          "type": "uint256"
        }
      ],
      "name": "Approval",
      "type": "event"
    },
    {
      "anonymous": false,
      "inputs": [
        {
          "indexed": true,
          "internalType": "address",
          "name": "oldOwner",
          "type": "address"
        },
        {
          "indexed": true,
          "internalType": "address",
          "name": "newOwner",
          "type": "address"
        }
      ],
      "name": "OwnerSet",
      "type": "event"
    },
    {
      "anonymous": false,
      "inputs": [
        {
          "indexed": true,
          "internalType": "address",
          "name": "setter",
          "type": "address"
        },
        {
          "indexed": false,
          "internalType": "uint256",
          "name": "price",
          "type": "uint256"
        },
        {
          "indexed": false,
          "internalType": "uint256",
          "name": "denominator",
          "type": "uint256"
        }
      ],
      "name": "PresaleSet",
      "type": "event"
    },
    {
      "anonymous": false,
      "inputs": [
        {
          "indexed": true,
          "internalType": "address",
          "name": "from",
          "type": "address"
        },
        {
          "indexed": true,
          "internalType": "address",
          "name": "to",
          "type": "address"
        },
        {
          "indexed": false,
          "internalType": "uint256",
          "name": "value",
          "type": "uint256"
        }
      ],
      "name": "Transfer",
      "type": "event"
    },
    {
      "anonymous": false,
      "inputs": [
        {
          "indexed": true,
          "internalType": "address",
          "name": "sender",
          "type": "address"
        },
        {
          "indexed": false,
          "internalType": "uint256",
          "name": "value",
          "type": "uint256"
        }
      ],
      "name": "ValueReceived",
      "type": "event"
    },
    {
      "stateMutability": "payable",
      "type": "fallback"
    },
    {
      "inputs": [
        {
          "internalType": "address",
          "name": "owner",
          "type": "address"
        },
        {
          "internalType": "address",
          "name": "spender",
          "type": "address"
        }
      ],
      "name": "allowance",
      "outputs": [
        {
          "internalType": "uint256",
          "name": "",
          "type": "uint256"
        }
      ],
      "stateMutability": "view",
      "type": "function"
    },
    {
      "inputs": [
        {
          "internalType": "address",
          "name": "spender",
          "type": "address"
        },
        {
          "internalType": "uint256",
          "name": "value",
          "type": "uint256"
        }
      ],
      "name": "approve",
      "outputs": [
        {
          "internalType": "bool",
          "name": "",
          "type": "bool"
        }
      ],
      "stateMutability": "nonpayable",
      "type": "function"
    },
    {
      "inputs": [
        {
          "internalType": "address",
          "name": "account",
          "type": "address"
        }
      ],
      "name": "balanceOf",
      "outputs": [
        {
          "internalType": "uint256",
          "name": "",
          "type": "uint256"
        }
      ],
      "stateMutability": "view",
      "type": "function"
    },
    {
      "inputs": [
        {
          "internalType": "address",
          "name": "_to",
          "type": "address"
        },
        {
          "internalType": "uint256",
          "name": "_amount",
          "type": "uint256"
        }
      ],
      "name": "buyTokenPresale",
      "outputs": [
        {
          "internalType": "bool",
          "name": "",
          "type": "bool"
        }
      ],
      "stateMutability": "nonpayable",
      "type": "function"
    },
    {
      "inputs": [
        {
          "internalType": "address",
          "name": "newOwner",
          "type": "address"
        }
      ],
      "name": "changeOwner",
      "outputs": [],
      "stateMutability": "nonpayable",
      "type": "function"
    },
    {
      "inputs": [],
      "name": "decimals",
      "outputs": [
        {
          "internalType": "uint8",
          "name": "",
          "type": "uint8"
        }
      ],
      "stateMutability": "view",
      "type": "function"
    },
    {
      "inputs": [],
      "name": "getBalance",
      "outputs": [
        {
          "internalType": "uint256",
          "name": "",
          "type": "uint256"
        }
      ],
      "stateMutability": "view",
      "type": "function"
    },
    {
      "inputs": [],
      "name": "getDenominator",
      "outputs": [
        {
          "internalType": "uint256",
          "name": "",
          "type": "uint256"
        }
      ],
      "stateMutability": "view",
      "type": "function"
    },
    {
      "inputs": [],
      "name": "getOwner",
      "outputs": [
        {
          "internalType": "address",
          "name": "",
          "type": "address"
        }
      ],
      "stateMutability": "view",
      "type": "function"
    },
    {
      "inputs": [],
      "name": "getPresalePrice",
      "outputs": [
        {
          "internalType": "uint256",
          "name": "",
          "type": "uint256"
        }
      ],
      "stateMutability": "view",
      "type": "function"
    },
    {
      "inputs": [],
      "name": "getPresaleStatus",
      "outputs": [
        {
          "internalType": "enum TAFA.PresaleStatus",
          "name": "",
          "type": "uint8"
        }
      ],
      "stateMutability": "view",
      "type": "function"
    },
    {
      "inputs": [],
      "name": "name",
      "outputs": [
        {
          "internalType": "string",
          "name": "",
          "type": "string"
        }
      ],
      "stateMutability": "view",
      "type": "function"
    },
    {
      "inputs": [],
      "name": "renounceOwnership",
      "outputs": [],
      "stateMutability": "nonpayable",
      "type": "function"
    },
    {
      "inputs": [
        {
          "internalType": "address",
          "name": "_to",
          "type": "address"
        },
        {
          "internalType": "address",
          "name": "_ca",
          "type": "address"
        },
        {
          "internalType": "uint256",
          "name": "_amount",
          "type": "uint256"
        }
      ],
      "name": "sendToken",
      "outputs": [],
      "stateMutability": "nonpayable",
      "type": "function"
    },
    {
      "inputs": [
        {
          "internalType": "enum TAFA.PresaleStatus",
          "name": "_status",
          "type": "uint8"
        },
        {
          "internalType": "uint256",
          "name": "_presalePrice",
          "type": "uint256"
        },
        {
          "internalType": "uint256",
          "name": "_denominator",
          "type": "uint256"
        }
      ],
      "name": "setPresaleStatus",
      "outputs": [],
      "stateMutability": "nonpayable",
      "type": "function"
    },
    {
      "inputs": [],
      "name": "symbol",
      "outputs": [
        {
          "internalType": "string",
          "name": "",
          "type": "string"
        }
      ],
      "stateMutability": "view",
      "type": "function"
    },
    {
      "inputs": [],
      "name": "totalSupply",
      "outputs": [
        {
          "internalType": "uint256",
          "name": "",
          "type": "uint256"
        }
      ],
      "stateMutability": "view",
      "type": "function"
    },
    {
      "inputs": [
        {
          "internalType": "address",
          "name": "to",
          "type": "address"
        },
        {
          "internalType": "uint256",
          "name": "value",
          "type": "uint256"
        }
      ],
      "name": "transfer",
      "outputs": [
        {
          "internalType": "bool",
          "name": "",
          "type": "bool"
        }
      ],
      "stateMutability": "nonpayable",
      "type": "function"
    },
    {
      "inputs": [
        {
          "internalType": "address",
          "name": "from",
          "type": "address"
        },
        {
          "internalType": "address",
          "name": "to",
          "type": "address"
        },
        {
          "internalType": "uint256",
          "name": "value",
          "type": "uint256"
        }
      ],
      "name": "transferFrom",
      "outputs": [
        {
          "internalType": "bool",
          "name": "",
          "type": "bool"
        }
      ],
      "stateMutability": "nonpayable",
      "type": "function"
    },
    {
      "inputs": [],
      "name": "withdrawBnb",
      "outputs": [],
      "stateMutability": "nonpayable",
      "type": "function"
    },
    {
      "stateMutability": "payable",
      "type": "receive"
    }
  ],
  "bytecode": "0x60806040523480156200001157600080fd5b5060405162002772380380620027728339818101604052810190620000379190620005c3565b818181600390816200004a91906200089e565b5080600490816200005c91906200089e565b5050506200007133846200013860201b60201c565b33600560016101000a81548173ffffffffffffffffffffffffffffffffffffffff021916908373ffffffffffffffffffffffffffffffffffffffff160217905550600560019054906101000a900473ffffffffffffffffffffffffffffffffffffffff1673ffffffffffffffffffffffffffffffffffffffff16600073ffffffffffffffffffffffffffffffffffffffff167f342827c97908e5e2f71151c08502a66d44b6f758e3ac2f1de95f02eb95f0a73560405160405180910390a350505062000abc565b600073ffffffffffffffffffffffffffffffffffffffff168273ffffffffffffffffffffffffffffffffffffffff1603620001ad5760006040517fec442f05000000000000000000000000000000000000000000000000000000008152600401620001a49190620009ca565b60405180910390fd5b620001c160008383620001c560201b60201c565b5050565b600073ffffffffffffffffffffffffffffffffffffffff168373ffffffffffffffffffffffffffffffffffffffff16036200021b5780600260008282546200020e919062000a16565b92505081905550620002f1565b60008060008573ffffffffffffffffffffffffffffffffffffffff1673ffffffffffffffffffffffffffffffffffffffff16815260200190815260200160002054905081811015620002aa578381836040517fe450d38c000000000000000000000000000000000000000000000000000000008152600401620002a19392919062000a62565b60405180910390fd5b8181036000808673ffffffffffffffffffffffffffffffffffffffff1673ffffffffffffffffffffffffffffffffffffffff16815260200190815260200160002081905550505b600073ffffffffffffffffffffffffffffffffffffffff168273ffffffffffffffffffffffffffffffffffffffff16036200033c578060026000828254039250508190555062000389565b806000808473ffffffffffffffffffffffffffffffffffffffff1673ffffffffffffffffffffffffffffffffffffffff168152602001908152602001600020600082825401925050819055505b8173ffffffffffffffffffffffffffffffffffffffff168373ffffffffffffffffffffffffffffffffffffffff167fddf252ad1be2c89b69c2b068fc378daa952ba7f163c4a11628f55a4df523b3ef83604051620003e8919062000a9f565b60405180910390a3505050565b6000604051905090565b600080fd5b600080fd5b6000819050919050565b6200041e8162000409565b81146200042a57600080fd5b50565b6000815190506200043e8162000413565b92915050565b600080fd5b600080fd5b6000601f19601f8301169050919050565b7f4e487b7100000000000000000000000000000000000000000000000000000000600052604160045260246000fd5b62000499826200044e565b810181811067ffffffffffffffff82111715620004bb57620004ba6200045f565b5b80604052505050565b6000620004d0620003f5565b9050620004de82826200048e565b919050565b600067ffffffffffffffff8211156200050157620005006200045f565b5b6200050c826200044e565b9050602081019050919050565b60005b83811015620005395780820151818401526020810190506200051c565b60008484015250505050565b60006200055c6200055684620004e3565b620004c4565b9050828152602081018484840111156200057b576200057a62000449565b5b6200058884828562000519565b509392505050565b600082601f830112620005a857620005a762000444565b5b8151620005ba84826020860162000545565b91505092915050565b600080600060608486031215620005df57620005de620003ff565b5b6000620005ef868287016200042d565b935050602084015167ffffffffffffffff81111562000613576200061262000404565b5b620006218682870162000590565b925050604084015167ffffffffffffffff81111562000645576200064462000404565b5b620006538682870162000590565b9150509250925092565b600081519050919050565b7f4e487b7100000000000000000000000000000000000000000000000000000000600052602260045260246000fd5b60006002820490506001821680620006b057607f821691505b602082108103620006c657620006c562000668565b5b50919050565b60008190508160005260206000209050919050565b60006020601f8301049050919050565b600082821b905092915050565b600060088302620007307fffffffffffffffffffffffffffffffffffffffffffffffffffffffffffffffff82620006f1565b6200073c8683620006f1565b95508019841693508086168417925050509392505050565b6000819050919050565b60006200077f62000779620007738462000409565b62000754565b62000409565b9050919050565b6000819050919050565b6200079b836200075e565b620007b3620007aa8262000786565b848454620006fe565b825550505050565b600090565b620007ca620007bb565b620007d781848462000790565b505050565b5b81811015620007ff57620007f3600082620007c0565b600181019050620007dd565b5050565b601f8211156200084e576200081881620006cc565b6200082384620006e1565b8101602085101562000833578190505b6200084b6200084285620006e1565b830182620007dc565b50505b505050565b600082821c905092915050565b6000620008736000198460080262000853565b1980831691505092915050565b60006200088e838362000860565b9150826002028217905092915050565b620008a9826200065d565b67ffffffffffffffff811115620008c557620008c46200045f565b5b620008d1825462000697565b620008de82828562000803565b600060209050601f83116001811462000916576000841562000901578287015190505b6200090d858262000880565b8655506200097d565b601f1984166200092686620006cc565b60005b82811015620009505784890151825560018201915060208501945060208101905062000929565b868310156200097057848901516200096c601f89168262000860565b8355505b6001600288020188555050505b505050505050565b600073ffffffffffffffffffffffffffffffffffffffff82169050919050565b6000620009b28262000985565b9050919050565b620009c481620009a5565b82525050565b6000602082019050620009e16000830184620009b9565b92915050565b7f4e487b7100000000000000000000000000000000000000000000000000000000600052601160045260246000fd5b600062000a238262000409565b915062000a308362000409565b925082820190508082111562000a4b5762000a4a620009e7565b5b92915050565b62000a5c8162000409565b82525050565b600060608201905062000a796000830186620009b9565b62000a88602083018562000a51565b62000a97604083018462000a51565b949350505050565b600060208201905062000ab6600083018462000a51565b92915050565b611ca68062000acc6000396000f3fe6080604052600436106101235760003560e01c806370a08231116100a0578063a6f9dae111610064578063a6f9dae114610457578063a9059cbb14610480578063b7c25a2e146104bd578063d7517caa146104fa578063dd62ed3e1461052557610178565b806370a0823114610382578063715018a6146103bf57806377ee4b0f146103d6578063893d20e81461040157806395d89b411461042c57610178565b80631c5b9992116100e75780631c5b9992146102b15780631da0603a146102da57806323b872dd146102f15780632fdcfbd21461032e578063313ce5671461035757610178565b806306fdde03146101c8578063095ea7b3146101f357806312065fe01461023057806318160ddd1461025b578063190eaaba1461028657610178565b36610178573373ffffffffffffffffffffffffffffffffffffffff167f7e71433ddf847725166244795048ecf3e3f9f35628254ecbf7360566642334933460405161016e919061159a565b60405180910390a2005b3373ffffffffffffffffffffffffffffffffffffffff167f7e71433ddf847725166244795048ecf3e3f9f35628254ecbf736056664233493346040516101be919061159a565b60405180910390a2005b3480156101d457600080fd5b506101dd610562565b6040516101ea9190611645565b60405180910390f35b3480156101ff57600080fd5b5061021a600480360381019061021591906116f6565b6105f4565b6040516102279190611751565b60405180910390f35b34801561023c57600080fd5b50610245610617565b604051610252919061159a565b60405180910390f35b34801561026757600080fd5b5061027061061f565b60405161027d919061159a565b60405180910390f35b34801561029257600080fd5b5061029b610629565b6040516102a8919061159a565b60405180910390f35b3480156102bd57600080fd5b506102d860048036038101906102d39190611791565b610633565b005b3480156102e657600080fd5b506102ef610747565b005b3480156102fd57600080fd5b50610318600480360381019061031391906117e4565b61081e565b6040516103259190611751565b60405180910390f35b34801561033a57600080fd5b50610355600480360381019061035091906117e4565b61084d565b005b34801561036357600080fd5b5061036c61095e565b6040516103799190611853565b60405180910390f35b34801561038e57600080fd5b506103a960048036038101906103a4919061186e565b610967565b6040516103b6919061159a565b60405180910390f35b3480156103cb57600080fd5b506103d46109af565b005b3480156103e257600080fd5b506103eb610af7565b6040516103f8919061159a565b60405180910390f35b34801561040d57600080fd5b50610416610b01565b60405161042391906118aa565b60405180910390f35b34801561043857600080fd5b50610441610b2b565b60405161044e9190611645565b60405180910390f35b34801561046357600080fd5b5061047e6004803603810190610479919061186e565b610bbd565b005b34801561048c57600080fd5b506104a760048036038101906104a291906116f6565b610d73565b6040516104b49190611751565b60405180910390f35b3480156104c957600080fd5b506104e460048036038101906104df91906116f6565b610d96565b6040516104f19190611751565b60405180910390f35b34801561050657600080fd5b5061050f610f45565b60405161051c919061193c565b60405180910390f35b34801561053157600080fd5b5061054c60048036038101906105479190611957565b610f5c565b604051610559919061159a565b60405180910390f35b606060038054610571906119c6565b80601f016020809104026020016040519081016040528092919081815260200182805461059d906119c6565b80156105ea5780601f106105bf576101008083540402835291602001916105ea565b820191906000526020600020905b8154815290600101906020018083116105cd57829003601f168201915b5050505050905090565b6000806105ff610fe3565b905061060c818585610feb565b600191505092915050565b600047905090565b6000600254905090565b6000600754905090565b600560019054906101000a900473ffffffffffffffffffffffffffffffffffffffff1673ffffffffffffffffffffffffffffffffffffffff163373ffffffffffffffffffffffffffffffffffffffff16146106ba576040517faa5ba5fa00000000000000000000000000000000000000000000000000000000815260040160405180910390fd5b82600560006101000a81548160ff021916908360018111156106df576106de6118c5565b5b021790555081600681905550806007819055503373ffffffffffffffffffffffffffffffffffffffff167ff516703c61fcc4520c3ab47f550cf6832db949932610efc561dcc71d752b26e3838360405161073a9291906119f7565b60405180910390a2505050565b600560019054906101000a900473ffffffffffffffffffffffffffffffffffffffff1673ffffffffffffffffffffffffffffffffffffffff163373ffffffffffffffffffffffffffffffffffffffff16146107ce576040517faa5ba5fa00000000000000000000000000000000000000000000000000000000815260040160405180910390fd5b3373ffffffffffffffffffffffffffffffffffffffff166108fc6107f0610617565b9081150290604051600060405180830381858888f1935050505015801561081b573d6000803e3d6000fd5b50565b600080610829610fe3565b9050610836858285610ffd565b610841858585611091565b60019150509392505050565b600560019054906101000a900473ffffffffffffffffffffffffffffffffffffffff1673ffffffffffffffffffffffffffffffffffffffff163373ffffffffffffffffffffffffffffffffffffffff16146108d4576040517faa5ba5fa00000000000000000000000000000000000000000000000000000000815260040160405180910390fd5b60008290508073ffffffffffffffffffffffffffffffffffffffff1663a9059cbb85846040518363ffffffff1660e01b8152600401610914929190611a20565b6020604051808303816000875af1158015610933573d6000803e3d6000fd5b505050506040513d601f19601f820116820180604052508101906109579190611a75565b5050505050565b60006012905090565b60008060008373ffffffffffffffffffffffffffffffffffffffff1673ffffffffffffffffffffffffffffffffffffffff168152602001908152602001600020549050919050565b600560019054906101000a900473ffffffffffffffffffffffffffffffffffffffff1673ffffffffffffffffffffffffffffffffffffffff163373ffffffffffffffffffffffffffffffffffffffff1614610a36576040517faa5ba5fa00000000000000000000000000000000000000000000000000000000815260040160405180910390fd5b600073ffffffffffffffffffffffffffffffffffffffff16600560019054906101000a900473ffffffffffffffffffffffffffffffffffffffff1673ffffffffffffffffffffffffffffffffffffffff167f342827c97908e5e2f71151c08502a66d44b6f758e3ac2f1de95f02eb95f0a73560405160405180910390a36000600560016101000a81548173ffffffffffffffffffffffffffffffffffffffff021916908373ffffffffffffffffffffffffffffffffffffffff160217905550565b6000600654905090565b6000600560019054906101000a900473ffffffffffffffffffffffffffffffffffffffff16905090565b606060048054610b3a906119c6565b80601f0160208091040260200160405190810160405280929190818152602001828054610b66906119c6565b8015610bb35780601f10610b8857610100808354040283529160200191610bb3565b820191906000526020600020905b815481529060010190602001808311610b9657829003601f168201915b5050505050905090565b600560019054906101000a900473ffffffffffffffffffffffffffffffffffffffff1673ffffffffffffffffffffffffffffffffffffffff163373ffffffffffffffffffffffffffffffffffffffff1614610c44576040517faa5ba5fa00000000000000000000000000000000000000000000000000000000815260040160405180910390fd5b600073ffffffffffffffffffffffffffffffffffffffff168173ffffffffffffffffffffffffffffffffffffffff1603610cb3576040517f08c379a0000000000000000000000000000000000000000000000000000000008152600401610caa90611b14565b60405180910390fd5b8073ffffffffffffffffffffffffffffffffffffffff16600560019054906101000a900473ffffffffffffffffffffffffffffffffffffffff1673ffffffffffffffffffffffffffffffffffffffff167f342827c97908e5e2f71151c08502a66d44b6f758e3ac2f1de95f02eb95f0a73560405160405180910390a380600560016101000a81548173ffffffffffffffffffffffffffffffffffffffff021916908373ffffffffffffffffffffffffffffffffffffffff16021790555050565b600080610d7e610fe3565b9050610d8b818585611091565b600191505092915050565b6000600560019054906101000a900473ffffffffffffffffffffffffffffffffffffffff1673ffffffffffffffffffffffffffffffffffffffff163373ffffffffffffffffffffffffffffffffffffffff1614610e1f576040517faa5ba5fa00000000000000000000000000000000000000000000000000000000815260040160405180910390fd5b600180811115610e3257610e316118c5565b5b600560009054906101000a900460ff166001811115610e5457610e536118c5565b5b14610e8b576040517f2495be5400000000000000000000000000000000000000000000000000000000815260040160405180910390fd5b600060065411610ec7576040517fc196aae100000000000000000000000000000000000000000000000000000000815260040160405180910390fd5b600060075411610f03576040517fae37c9e500000000000000000000000000000000000000000000000000000000815260040160405180910390fd5b600060065460075484610f169190611b63565b610f209190611bd4565b90506000610f2c610fe3565b9050610f39818684611091565b60019250505092915050565b6000600560009054906101000a900460ff16905090565b6000600160008473ffffffffffffffffffffffffffffffffffffffff1673ffffffffffffffffffffffffffffffffffffffff16815260200190815260200160002060008373ffffffffffffffffffffffffffffffffffffffff1673ffffffffffffffffffffffffffffffffffffffff16815260200190815260200160002054905092915050565b600033905090565b610ff88383836001611185565b505050565b60006110098484610f5c565b90507fffffffffffffffffffffffffffffffffffffffffffffffffffffffffffffffff811461108b578181101561107b578281836040517ffb8f41b200000000000000000000000000000000000000000000000000000000815260040161107293929190611c05565b60405180910390fd5b61108a84848484036000611185565b5b50505050565b600073ffffffffffffffffffffffffffffffffffffffff168373ffffffffffffffffffffffffffffffffffffffff16036111035760006040517f96c6fd1e0000000000000000000000000000000000000000000000000000000081526004016110fa91906118aa565b60405180910390fd5b600073ffffffffffffffffffffffffffffffffffffffff168273ffffffffffffffffffffffffffffffffffffffff16036111755760006040517fec442f0500000000000000000000000000000000000000000000000000000000815260040161116c91906118aa565b60405180910390fd5b61118083838361135c565b505050565b600073ffffffffffffffffffffffffffffffffffffffff168473ffffffffffffffffffffffffffffffffffffffff16036111f75760006040517fe602df050000000000000000000000000000000000000000000000000000000081526004016111ee91906118aa565b60405180910390fd5b600073ffffffffffffffffffffffffffffffffffffffff168373ffffffffffffffffffffffffffffffffffffffff16036112695760006040517f94280d6200000000000000000000000000000000000000000000000000000000815260040161126091906118aa565b60405180910390fd5b81600160008673ffffffffffffffffffffffffffffffffffffffff1673ffffffffffffffffffffffffffffffffffffffff16815260200190815260200160002060008573ffffffffffffffffffffffffffffffffffffffff1673ffffffffffffffffffffffffffffffffffffffff168152602001908152602001600020819055508015611356578273ffffffffffffffffffffffffffffffffffffffff168473ffffffffffffffffffffffffffffffffffffffff167f8c5be1e5ebec7d5bd14f71427d1e84f3dd0314c0f7b2291e5b200ac8c7c3b9258460405161134d919061159a565b60405180910390a35b50505050565b600073ffffffffffffffffffffffffffffffffffffffff168373ffffffffffffffffffffffffffffffffffffffff16036113ae5780600260008282546113a29190611c3c565b92505081905550611481565b60008060008573ffffffffffffffffffffffffffffffffffffffff1673ffffffffffffffffffffffffffffffffffffffff1681526020019081526020016000205490508181101561143a578381836040517fe450d38c00000000000000000000000000000000000000000000000000000000815260040161143193929190611c05565b60405180910390fd5b8181036000808673ffffffffffffffffffffffffffffffffffffffff1673ffffffffffffffffffffffffffffffffffffffff16815260200190815260200160002081905550505b600073ffffffffffffffffffffffffffffffffffffffff168273ffffffffffffffffffffffffffffffffffffffff16036114ca5780600260008282540392505081905550611517565b806000808473ffffffffffffffffffffffffffffffffffffffff1673ffffffffffffffffffffffffffffffffffffffff168152602001908152602001600020600082825401925050819055505b8173ffffffffffffffffffffffffffffffffffffffff168373ffffffffffffffffffffffffffffffffffffffff167fddf252ad1be2c89b69c2b068fc378daa952ba7f163c4a11628f55a4df523b3ef83604051611574919061159a565b60405180910390a3505050565b6000819050919050565b61159481611581565b82525050565b60006020820190506115af600083018461158b565b92915050565b600081519050919050565b600082825260208201905092915050565b60005b838110156115ef5780820151818401526020810190506115d4565b60008484015250505050565b6000601f19601f8301169050919050565b6000611617826115b5565b61162181856115c0565b93506116318185602086016115d1565b61163a816115fb565b840191505092915050565b6000602082019050818103600083015261165f818461160c565b905092915050565b600080fd5b600073ffffffffffffffffffffffffffffffffffffffff82169050919050565b60006116978261166c565b9050919050565b6116a78161168c565b81146116b257600080fd5b50565b6000813590506116c48161169e565b92915050565b6116d381611581565b81146116de57600080fd5b50565b6000813590506116f0816116ca565b92915050565b6000806040838503121561170d5761170c611667565b5b600061171b858286016116b5565b925050602061172c858286016116e1565b9150509250929050565b60008115159050919050565b61174b81611736565b82525050565b60006020820190506117666000830184611742565b92915050565b6002811061177957600080fd5b50565b60008135905061178b8161176c565b92915050565b6000806000606084860312156117aa576117a9611667565b5b60006117b88682870161177c565b93505060206117c9868287016116e1565b92505060406117da868287016116e1565b9150509250925092565b6000806000606084860312156117fd576117fc611667565b5b600061180b868287016116b5565b935050602061181c868287016116b5565b925050604061182d868287016116e1565b9150509250925092565b600060ff82169050919050565b61184d81611837565b82525050565b60006020820190506118686000830184611844565b92915050565b60006020828403121561188457611883611667565b5b6000611892848285016116b5565b91505092915050565b6118a48161168c565b82525050565b60006020820190506118bf600083018461189b565b92915050565b7f4e487b7100000000000000000000000000000000000000000000000000000000600052602160045260246000fd5b60028110611905576119046118c5565b5b50565b6000819050611916826118f4565b919050565b600061192682611908565b9050919050565b6119368161191b565b82525050565b6000602082019050611951600083018461192d565b92915050565b6000806040838503121561196e5761196d611667565b5b600061197c858286016116b5565b925050602061198d858286016116b5565b9150509250929050565b7f4e487b7100000000000000000000000000000000000000000000000000000000600052602260045260246000fd5b600060028204905060018216806119de57607f821691505b6020821081036119f1576119f0611997565b5b50919050565b6000604082019050611a0c600083018561158b565b611a19602083018461158b565b9392505050565b6000604082019050611a35600083018561189b565b611a42602083018461158b565b9392505050565b611a5281611736565b8114611a5d57600080fd5b50565b600081519050611a6f81611a49565b92915050565b600060208284031215611a8b57611a8a611667565b5b6000611a9984828501611a60565b91505092915050565b7f4f776e61626c653a206e6577206f776e657220697320746865207a65726f206160008201527f6464726573730000000000000000000000000000000000000000000000000000602082015250565b6000611afe6026836115c0565b9150611b0982611aa2565b604082019050919050565b60006020820190508181036000830152611b2d81611af1565b9050919050565b7f4e487b7100000000000000000000000000000000000000000000000000000000600052601160045260246000fd5b6000611b6e82611581565b9150611b7983611581565b9250828202611b8781611581565b91508282048414831517611b9e57611b9d611b34565b5b5092915050565b7f4e487b7100000000000000000000000000000000000000000000000000000000600052601260045260246000fd5b6000611bdf82611581565b9150611bea83611581565b925082611bfa57611bf9611ba5565b5b828204905092915050565b6000606082019050611c1a600083018661189b565b611c27602083018561158b565b611c34604083018461158b565b949350505050565b6000611c4782611581565b9150611c5283611581565b9250828201905080821115611c6a57611c69611b34565b5b9291505056fea2646970667358221220be5b5276d3a2bc1a7e0be1a8ac50640e45fd22785c1ebdf11368a5f46dcf522e64736f6c63430008140033",
  "linkReferences": {},
  "deployedLinkReferences": {}
}