{
  "_format": "hh-sol-artifact-1",
  "contractName": "Stake",
  "sourceName": "contracts/Stake.sol",
  "abi": [
    {
      "inputs": [
        {
          "internalType": "contract TAFA",
          "name": "_tokenContract",
          "type": "address"
        }
      ],
      "stateMutability": "nonpayable",
      "type": "constructor"
    },
    {
      "anonymous": false,
      "inputs": [
        {
          "indexed": true,
          "internalType": "address",
          "name": "staker",
          "type": "address"
        },
        {
          "indexed": false,
          "internalType": "uint256",
          "name": "stake_duration",
          "type": "uint256"
        },
        {
          "indexed": false,
          "internalType": "uint256",
          "name": "stake_amount",
          "type": "uint256"
        },
        {
          "indexed": false,
          "internalType": "uint256",
          "name": "stakerewardperDay",
          "type": "uint256"
        },
        {
          "indexed": false,
          "internalType": "uint256",
          "name": "totalstakeReward",
          "type": "uint256"
        },
        {
          "indexed": false,
          "internalType": "uint256",
          "name": "total_reward",
          "type": "uint256"
        },
        {
          "indexed": false,
          "internalType": "bool",
          "name": "hasStake",
          "type": "bool"
        },
        {
          "indexed": false,
          "internalType": "bool",
          "name": "unStaked",
          "type": "bool"
        }
      ],
      "name": "StakedEvent",
      "type": "event"
    },
    {
      "anonymous": false,
      "inputs": [
        {
          "indexed": true,
          "internalType": "address",
          "name": "unstaker",
          "type": "address"
        },
        {
          "indexed": false,
          "internalType": "uint256",
          "name": "unstakeFee",
          "type": "uint256"
        },
        {
          "indexed": false,
          "internalType": "uint256",
          "name": "_amtUnstaked",
          "type": "uint256"
        }
      ],
      "name": "UnstakeEvent",
      "type": "event"
    },
    {
      "anonymous": false,
      "inputs": [
        {
          "indexed": false,
          "internalType": "uint256",
          "name": "stakerewardperDay",
          "type": "uint256"
        },
        {
          "indexed": false,
          "internalType": "uint256",
          "name": "stakerewardperHour",
          "type": "uint256"
        },
        {
          "indexed": false,
          "internalType": "uint256",
          "name": "currentstakeReward",
          "type": "uint256"
        }
      ],
      "name": "UpdateRewardevent",
      "type": "event"
    },
    {
      "anonymous": false,
      "inputs": [
        {
          "indexed": true,
          "internalType": "address",
          "name": "staker",
          "type": "address"
        },
        {
          "indexed": false,
          "internalType": "uint256",
          "name": "stake_duration",
          "type": "uint256"
        },
        {
          "indexed": false,
          "internalType": "uint256",
          "name": "newStakeAmount",
          "type": "uint256"
        },
        {
          "indexed": false,
          "internalType": "bool",
          "name": "hasStake",
          "type": "bool"
        }
      ],
      "name": "UpdateStakedEvent",
      "type": "event"
    },
    {
      "anonymous": false,
      "inputs": [
        {
          "indexed": true,
          "internalType": "address",
          "name": "staker",
          "type": "address"
        },
        {
          "indexed": false,
          "internalType": "uint256",
          "name": "stake_duration",
          "type": "uint256"
        },
        {
          "indexed": false,
          "internalType": "uint256",
          "name": "stake_amount",
          "type": "uint256"
        },
        {
          "indexed": false,
          "internalType": "uint256",
          "name": "stakerewardperDay",
          "type": "uint256"
        },
        {
          "indexed": false,
          "internalType": "uint256",
          "name": "totalstake_reward",
          "type": "uint256"
        },
        {
          "indexed": false,
          "internalType": "uint256",
          "name": "total_reward",
          "type": "uint256"
        },
        {
          "indexed": false,
          "internalType": "address",
          "name": "ref_Errer",
          "type": "address"
        },
        {
          "indexed": false,
          "internalType": "bool",
          "name": "hasStake",
          "type": "bool"
        },
        {
          "indexed": false,
          "internalType": "bool",
          "name": "unStaked",
          "type": "bool"
        }
      ],
      "name": "UpgradeEvent",
      "type": "event"
    },
    {
      "anonymous": false,
      "inputs": [
        {
          "indexed": true,
          "internalType": "address",
          "name": "Withdrawer",
          "type": "address"
        },
        {
          "indexed": false,
          "internalType": "uint256",
          "name": "total_Reward",
          "type": "uint256"
        },
        {
          "indexed": false,
          "internalType": "uint256",
          "name": "WithdrawTime",
          "type": "uint256"
        }
      ],
      "name": "WithdrawlEvent",
      "type": "event"
    },
    {
      "inputs": [],
      "name": "getCurrentReward",
      "outputs": [
        {
          "internalType": "uint256",
          "name": "",
          "type": "uint256"
        }
      ],
      "stateMutability": "nonpayable",
      "type": "function"
    },
    {
      "inputs": [],
      "name": "getOwner",
      "outputs": [
        {
          "internalType": "address",
          "name": "",
          "type": "address"
        }
      ],
      "stateMutability": "view",
      "type": "function"
    },
    {
      "inputs": [],
      "name": "getReferrer",
      "outputs": [
        {
          "internalType": "address",
          "name": "",
          "type": "address"
        }
      ],
      "stateMutability": "view",
      "type": "function"
    },
    {
      "inputs": [
        {
          "internalType": "address",
          "name": "user_address",
          "type": "address"
        }
      ],
      "name": "getrefDetails",
      "outputs": [
        {
          "internalType": "address",
          "name": "referrer",
          "type": "address"
        },
        {
          "internalType": "uint256",
          "name": "refCount",
          "type": "uint256"
        }
      ],
      "stateMutability": "view",
      "type": "function"
    },
    {
      "inputs": [
        {
          "internalType": "address",
          "name": "user_address",
          "type": "address"
        }
      ],
      "name": "getstakeDetails",
      "outputs": [
        {
          "internalType": "uint256",
          "name": "rewardTime",
          "type": "uint256"
        },
        {
          "internalType": "uint256",
          "name": "stakeAmount",
          "type": "uint256"
        },
        {
          "internalType": "uint256",
          "name": "stakeDuration",
          "type": "uint256"
        },
        {
          "internalType": "uint256",
          "name": "stakeRewardPerDay",
          "type": "uint256"
        },
        {
          "internalType": "uint256",
          "name": "totalstakeReward",
          "type": "uint256"
        },
        {
          "internalType": "uint256",
          "name": "totalReward",
          "type": "uint256"
        }
      ],
      "stateMutability": "view",
      "type": "function"
    },
    {
      "inputs": [],
      "name": "getuserCount",
      "outputs": [
        {
          "internalType": "uint256",
          "name": "",
          "type": "uint256"
        }
      ],
      "stateMutability": "view",
      "type": "function"
    },
    {
      "inputs": [
        {
          "internalType": "address",
          "name": "_staker",
          "type": "address"
        }
      ],
      "name": "hasStaked",
      "outputs": [
        {
          "internalType": "bool",
          "name": "",
          "type": "bool"
        }
      ],
      "stateMutability": "view",
      "type": "function"
    },
    {
      "inputs": [],
      "name": "myTokenBalance",
      "outputs": [
        {
          "internalType": "uint256",
          "name": "",
          "type": "uint256"
        }
      ],
      "stateMutability": "view",
      "type": "function"
    },
    {
      "inputs": [],
      "name": "myWalletAddress",
      "outputs": [
        {
          "internalType": "address",
          "name": "",
          "type": "address"
        }
      ],
      "stateMutability": "view",
      "type": "function"
    },
    {
      "inputs": [
        {
          "internalType": "address",
          "name": "referrer",
          "type": "address"
        },
        {
          "internalType": "uint256",
          "name": "stake_amount",
          "type": "uint256"
        },
        {
          "internalType": "uint256",
          "name": "stake_duration",
          "type": "uint256"
        }
      ],
      "name": "refStake",
      "outputs": [
        {
          "internalType": "uint256",
          "name": "",
          "type": "uint256"
        }
      ],
      "stateMutability": "payable",
      "type": "function"
    },
    {
      "inputs": [
        {
          "internalType": "uint256",
          "name": "stake_amount",
          "type": "uint256"
        },
        {
          "internalType": "uint256",
          "name": "stake_duration",
          "type": "uint256"
        }
      ],
      "name": "stake",
      "outputs": [
        {
          "internalType": "uint256",
          "name": "",
          "type": "uint256"
        }
      ],
      "stateMutability": "payable",
      "type": "function"
    },
    {
      "inputs": [],
      "name": "tokenContract",
      "outputs": [
        {
          "internalType": "contract TAFA",
          "name": "",
          "type": "address"
        }
      ],
      "stateMutability": "view",
      "type": "function"
    },
    {
      "inputs": [],
      "name": "unStakeToken",
      "outputs": [
        {
          "internalType": "uint256",
          "name": "",
          "type": "uint256"
        }
      ],
      "stateMutability": "nonpayable",
      "type": "function"
    },
    {
      "inputs": [
        {
          "internalType": "uint256",
          "name": "topup_amount",
          "type": "uint256"
        },
        {
          "internalType": "uint256",
          "name": "stake_duration",
          "type": "uint256"
        }
      ],
      "name": "upgradeStake",
      "outputs": [
        {
          "internalType": "bool",
          "name": "",
          "type": "bool"
        }
      ],
      "stateMutability": "nonpayable",
      "type": "function"
    },
    {
      "inputs": [
        {
          "internalType": "address",
          "name": "_staker",
          "type": "address"
        }
      ],
      "name": "wasRef_errered",
      "outputs": [
        {
          "internalType": "bool",
          "name": "",
          "type": "bool"
        }
      ],
      "stateMutability": "view",
      "type": "function"
    },
    {
      "inputs": [],
      "name": "withdrawStake",
      "outputs": [
        {
          "internalType": "bool",
          "name": "",
          "type": "bool"
        }
      ],
      "stateMutability": "payable",
      "type": "function"
    }
  ],
  "bytecode": "0x6080604052426002553480156200001557600080fd5b50604051620045e1380380620045e183398181016040528101906200003b919062000141565b80600360006101000a81548173ffffffffffffffffffffffffffffffffffffffff021916908373ffffffffffffffffffffffffffffffffffffffff160217905550336000806101000a81548173ffffffffffffffffffffffffffffffffffffffff021916908373ffffffffffffffffffffffffffffffffffffffff1602179055505062000173565b600080fd5b600073ffffffffffffffffffffffffffffffffffffffff82169050919050565b6000620000f582620000c8565b9050919050565b60006200010982620000e8565b9050919050565b6200011b81620000fc565b81146200012757600080fd5b50565b6000815190506200013b8162000110565b92915050565b6000602082840312156200015a5762000159620000c3565b5b60006200016a848285016200012a565b91505092915050565b61445e80620001836000396000f3fe6080604052600436106100f35760003560e01c806389e555dc1161008a578063c93c8f3411610059578063c93c8f3414610330578063e9cfce821461036d578063ec2c68a714610398578063f3106458146103d5576100f3565b806389e555dc1461027f5780638aec8542146102aa5780639a96c1a2146102d5578063bed9d86114610312576100f3565b8063764379fe116100c6578063764379fe146101a45780637b0472f0146101e25780638055415214610212578063893d20e814610254576100f3565b80634aa3f624146100f857806355a373d6146101235780635e52a00b1461014e5780635e6ba54914610179575b600080fd5b34801561010457600080fd5b5061010d610405565b60405161011a919061385c565b60405180910390f35b34801561012f57600080fd5b50610138610882565b60405161014591906138f6565b60405180910390f35b34801561015a57600080fd5b506101636108a8565b6040516101709190613932565b60405180910390f35b34801561018557600080fd5b5061018e610934565b60405161019b919061385c565b60405180910390f35b3480156101b057600080fd5b506101cb60048036038101906101c6919061397e565b61099d565b6040516101d99291906139ab565b60405180910390f35b6101fc60048036038101906101f79190613a00565b610b0d565b604051610209919061385c565b60405180910390f35b34801561021e57600080fd5b506102396004803603810190610234919061397e565b6115bc565b60405161024b96959493929190613a40565b60405180910390f35b34801561026057600080fd5b5061026961184c565b6040516102769190613932565b60405180910390f35b34801561028b57600080fd5b50610294611875565b6040516102a1919061385c565b60405180910390f35b3480156102b657600080fd5b506102bf611882565b6040516102cc919061385c565b60405180910390f35b3480156102e157600080fd5b506102fc60048036038101906102f7919061397e565b611a9d565b6040516103099190613abc565b60405180910390f35b61031a611b0d565b6040516103279190613abc565b60405180910390f35b34801561033c57600080fd5b506103576004803603810190610352919061397e565b611f5f565b6040516103649190613abc565b60405180910390f35b34801561037957600080fd5b50610382611fcf565b60405161038f9190613932565b60405180910390f35b3480156103a457600080fd5b506103bf60048036038101906103ba9190613a00565b611fd7565b6040516103cc9190613abc565b60405180910390f35b6103ef60048036038101906103ea9190613ad7565b6129f3565b6040516103fc919061385c565b60405180910390f35b6000801515610435600160009054906101000a900473ffffffffffffffffffffffffffffffffffffffff16611f5f565b15150361044157600080fd5b600160056000600160009054906101000a900473ffffffffffffffffffffffffffffffffffffffff1673ffffffffffffffffffffffffffffffffffffffff1673ffffffffffffffffffffffffffffffffffffffff16815260200190815260200160002060070160016101000a81548160ff0219169083151502179055506000600160009054906101000a900473ffffffffffffffffffffffffffffffffffffffff16905060006105726064610564600c60056000600160009054906101000a900473ffffffffffffffffffffffffffffffffffffffff1673ffffffffffffffffffffffffffffffffffffffff1673ffffffffffffffffffffffffffffffffffffffff168152602001908152602001600020600201546137c490919063ffffffff16565b61380690919063ffffffff16565b9050600060056000600160009054906101000a900473ffffffffffffffffffffffffffffffffffffffff1673ffffffffffffffffffffffffffffffffffffffff1673ffffffffffffffffffffffffffffffffffffffff168152602001908152602001600020600201549050600060056000600160009054906101000a900473ffffffffffffffffffffffffffffffffffffffff1673ffffffffffffffffffffffffffffffffffffffff1673ffffffffffffffffffffffffffffffffffffffff168152602001908152602001600020600301549050600061065b828461381c90919063ffffffff16565b905060056000600160009054906101000a900473ffffffffffffffffffffffffffffffffffffffff1673ffffffffffffffffffffffffffffffffffffffff1673ffffffffffffffffffffffffffffffffffffffff1681526020019081526020016000206000808201600090556001820160009055600282016000905560038201600090556004820160009055600582016000905560068201600090556007820160006101000a81549060ff02191690556007820160016101000a81549060ff021916905560088201600090556009820160006101000a81549073ffffffffffffffffffffffffffffffffffffffff02191690556009820160146101000a81549060ff02191690555050600360009054906101000a900473ffffffffffffffffffffffffffffffffffffffff1673ffffffffffffffffffffffffffffffffffffffff1663a9059cbb600160009054906101000a900473ffffffffffffffffffffffffffffffffffffffff16836040518363ffffffff1660e01b81526004016107e39291906139ab565b6020604051808303816000875af1158015610802573d6000803e3d6000fd5b505050506040513d601f19601f820116820180604052508101906108269190613b56565b508473ffffffffffffffffffffffffffffffffffffffff167f38a65ee4617aeeac7f05fa0fc44cb15b94c7d106663b3e2518f2d013969fb6aa858360405161086f929190613b83565b60405180910390a2839550505050505090565b600360009054906101000a900473ffffffffffffffffffffffffffffffffffffffff1681565b600060056000600160009054906101000a900473ffffffffffffffffffffffffffffffffffffffff1673ffffffffffffffffffffffffffffffffffffffff1673ffffffffffffffffffffffffffffffffffffffff16815260200190815260200160002060090160009054906101000a900473ffffffffffffffffffffffffffffffffffffffff16905090565b600060046000600160009054906101000a900473ffffffffffffffffffffffffffffffffffffffff1673ffffffffffffffffffffffffffffffffffffffff1673ffffffffffffffffffffffffffffffffffffffff16815260200190815260200160002054905090565b600080600015156109ad84611f5f565b1515036109ef576040517f08c379a00000000000000000000000000000000000000000000000000000000081526004016109e690613c09565b60405180910390fd5b600073ffffffffffffffffffffffffffffffffffffffff168373ffffffffffffffffffffffffffffffffffffffff1603610a5e576040517f08c379a0000000000000000000000000000000000000000000000000000000008152600401610a5590613c75565b60405180910390fd5b600560008473ffffffffffffffffffffffffffffffffffffffff1673ffffffffffffffffffffffffffffffffffffffff16815260200190815260200160002060090160009054906101000a900473ffffffffffffffffffffffffffffffffffffffff16600560008573ffffffffffffffffffffffffffffffffffffffff1673ffffffffffffffffffffffffffffffffffffffff1681526020019081526020016000206008015491509150915091565b60003373ffffffffffffffffffffffffffffffffffffffff1660008054906101000a900473ffffffffffffffffffffffffffffffffffffffff1673ffffffffffffffffffffffffffffffffffffffff1614610b9d576040517f08c379a0000000000000000000000000000000000000000000000000000000008152600401610b9490613ce1565b60405180910390fd5b600073ffffffffffffffffffffffffffffffffffffffff16600160009054906101000a900473ffffffffffffffffffffffffffffffffffffffff1673ffffffffffffffffffffffffffffffffffffffff1603610c2e576040517f08c379a0000000000000000000000000000000000000000000000000000000008152600401610c2590613d4d565b60405180910390fd5b6001151560056000600160009054906101000a900473ffffffffffffffffffffffffffffffffffffffff1673ffffffffffffffffffffffffffffffffffffffff1673ffffffffffffffffffffffffffffffffffffffff16815260200190815260200160002060070160009054906101000a900460ff16151503610ce6576040517f08c379a0000000000000000000000000000000000000000000000000000000008152600401610cdd90613ddf565b60405180910390fd5b601e821480610cf55750605a82145b80610d01575061016d82145b80610d0d57506103e882145b1561130a576000601e8303610d4a57610d436064610d356002876137c490919063ffffffff16565b61380690919063ffffffff16565b9050610def565b605a8303610d8157610d7a6103e8610d6c6016876137c490919063ffffffff16565b61380690919063ffffffff16565b9050610dee565b61016d8303610db857610db16064610da36003876137c490919063ffffffff16565b61380690919063ffffffff16565b9050610ded565b6103e88303610dec57610de96103e8610ddb6023876137c490919063ffffffff16565b61380690919063ffffffff16565b90505b5b5b5b6201518083610dfe9190613e2e565b600254610e0b9190613e70565b60056000600160009054906101000a900473ffffffffffffffffffffffffffffffffffffffff1673ffffffffffffffffffffffffffffffffffffffff1673ffffffffffffffffffffffffffffffffffffffff168152602001908152602001600020600001819055508260056000600160009054906101000a900473ffffffffffffffffffffffffffffffffffffffff1673ffffffffffffffffffffffffffffffffffffffff1673ffffffffffffffffffffffffffffffffffffffff168152602001908152602001600020600101819055508060056000600160009054906101000a900473ffffffffffffffffffffffffffffffffffffffff1673ffffffffffffffffffffffffffffffffffffffff1673ffffffffffffffffffffffffffffffffffffffff16815260200190815260200160002060040181905550610f5883826137c490919063ffffffff16565b60056000600160009054906101000a900473ffffffffffffffffffffffffffffffffffffffff1673ffffffffffffffffffffffffffffffffffffffff1673ffffffffffffffffffffffffffffffffffffffff1681526020019081526020016000206005018190555061103760056000600160009054906101000a900473ffffffffffffffffffffffffffffffffffffffff1673ffffffffffffffffffffffffffffffffffffffff1673ffffffffffffffffffffffffffffffffffffffff168152602001908152602001600020600501548561381c90919063ffffffff16565b60056000600160009054906101000a900473ffffffffffffffffffffffffffffffffffffffff1673ffffffffffffffffffffffffffffffffffffffff1673ffffffffffffffffffffffffffffffffffffffff168152602001908152602001600020600601819055508360056000600160009054906101000a900473ffffffffffffffffffffffffffffffffffffffff1673ffffffffffffffffffffffffffffffffffffffff1673ffffffffffffffffffffffffffffffffffffffff16815260200190815260200160002060020181905550600160056000600160009054906101000a900473ffffffffffffffffffffffffffffffffffffffff1673ffffffffffffffffffffffffffffffffffffffff1673ffffffffffffffffffffffffffffffffffffffff16815260200190815260200160002060070160006101000a81548160ff021916908315150217905550600060056000600160009054906101000a900473ffffffffffffffffffffffffffffffffffffffff1673ffffffffffffffffffffffffffffffffffffffff1673ffffffffffffffffffffffffffffffffffffffff16815260200190815260200160002060090160146101000a81548160ff021916908315150217905550600060056000600160009054906101000a900473ffffffffffffffffffffffffffffffffffffffff1673ffffffffffffffffffffffffffffffffffffffff1673ffffffffffffffffffffffffffffffffffffffff16815260200190815260200160002060070160016101000a81548160ff0219169083151502179055506006600160009054906101000a900473ffffffffffffffffffffffffffffffffffffffff169080600181540180825580915050600190039060005260206000200160009091909190916101000a81548173ffffffffffffffffffffffffffffffffffffffff021916908373ffffffffffffffffffffffffffffffffffffffff16021790555050611345565b6040517f08c379a000000000000000000000000000000000000000000000000000000000815260040161133c90613ef0565b60405180910390fd5b600360009054906101000a900473ffffffffffffffffffffffffffffffffffffffff1673ffffffffffffffffffffffffffffffffffffffff1663a9059cbb30856040518363ffffffff1660e01b81526004016113a29291906139ab565b6020604051808303816000875af11580156113c1573d6000803e3d6000fd5b505050506040513d601f19601f820116820180604052508101906113e59190613b56565b50600060056000600160009054906101000a900473ffffffffffffffffffffffffffffffffffffffff1673ffffffffffffffffffffffffffffffffffffffff1673ffffffffffffffffffffffffffffffffffffffff168152602001908152602001600020600401549050600060056000600160009054906101000a900473ffffffffffffffffffffffffffffffffffffffff1673ffffffffffffffffffffffffffffffffffffffff1673ffffffffffffffffffffffffffffffffffffffff168152602001908152602001600020600601549050600060056000600160009054906101000a900473ffffffffffffffffffffffffffffffffffffffff1673ffffffffffffffffffffffffffffffffffffffff1673ffffffffffffffffffffffffffffffffffffffff168152602001908152602001600020600501549050600160009054906101000a900473ffffffffffffffffffffffffffffffffffffffff1673ffffffffffffffffffffffffffffffffffffffff167f46c2bd5259dfe0f94eec620c35cc49d5b4ea91d4e581e0a8fb36767b3ee85e438688868587600160006040516115979796959493929190613f10565b60405180910390a260016006805490506115b19190613f7f565b935050505092915050565b600080600080600080600015156115d288611f5f565b151503611614576040517f08c379a000000000000000000000000000000000000000000000000000000000815260040161160b90613c09565b60405180910390fd5b600073ffffffffffffffffffffffffffffffffffffffff16600160009054906101000a900473ffffffffffffffffffffffffffffffffffffffff1673ffffffffffffffffffffffffffffffffffffffff16036116a5576040517f08c379a000000000000000000000000000000000000000000000000000000000815260040161169c90613c75565b60405180910390fd5b600560008873ffffffffffffffffffffffffffffffffffffffff1673ffffffffffffffffffffffffffffffffffffffff16815260200190815260200160002060000154600560008973ffffffffffffffffffffffffffffffffffffffff1673ffffffffffffffffffffffffffffffffffffffff16815260200190815260200160002060020154600560008a73ffffffffffffffffffffffffffffffffffffffff1673ffffffffffffffffffffffffffffffffffffffff16815260200190815260200160002060010154600560008b73ffffffffffffffffffffffffffffffffffffffff1673ffffffffffffffffffffffffffffffffffffffff16815260200190815260200160002060040154600560008c73ffffffffffffffffffffffffffffffffffffffff1673ffffffffffffffffffffffffffffffffffffffff16815260200190815260200160002060060154600560008d73ffffffffffffffffffffffffffffffffffffffff1673ffffffffffffffffffffffffffffffffffffffff1681526020019081526020016000206005015495509550955095509550955091939550919395565b60008060009054906101000a900473ffffffffffffffffffffffffffffffffffffffff16905090565b6000600680549050905090565b60008015156118b2600160009054906101000a900473ffffffffffffffffffffffffffffffffffffffff16611f5f565b1515036118f4576040517f08c379a00000000000000000000000000000000000000000000000000000000081526004016118eb90613c09565b60405180910390fd5b600060056000600160009054906101000a900473ffffffffffffffffffffffffffffffffffffffff1673ffffffffffffffffffffffffffffffffffffffff1673ffffffffffffffffffffffffffffffffffffffff168152602001908152602001600020600401549050600061197360168361380690919063ffffffff16565b90508060056000600160009054906101000a900473ffffffffffffffffffffffffffffffffffffffff1673ffffffffffffffffffffffffffffffffffffffff1673ffffffffffffffffffffffffffffffffffffffff16815260200190815260200160002060030160008282546119e99190613e70565b92505081905550600060056000600160009054906101000a900473ffffffffffffffffffffffffffffffffffffffff1673ffffffffffffffffffffffffffffffffffffffff1673ffffffffffffffffffffffffffffffffffffffff1681526020019081526020016000206003015490507fc4b3c259f9663da534499c9e2a072df80f7918534ec2f8d1edd0fe7e1733a224838383604051611a8c93929190613fb3565b60405180910390a180935050505090565b600060011515600560008473ffffffffffffffffffffffffffffffffffffffff1673ffffffffffffffffffffffffffffffffffffffff16815260200190815260200160002060090160149054906101000a900460ff16151503611b035760019050611b08565b600090505b919050565b6000801515611b3d600160009054906101000a900473ffffffffffffffffffffffffffffffffffffffff16611f5f565b151503611b4957600080fd5b60056000600160009054906101000a900473ffffffffffffffffffffffffffffffffffffffff1673ffffffffffffffffffffffffffffffffffffffff1673ffffffffffffffffffffffffffffffffffffffff1681526020019081526020016000206000015460025410611f2157600060056000600160009054906101000a900473ffffffffffffffffffffffffffffffffffffffff1673ffffffffffffffffffffffffffffffffffffffff1673ffffffffffffffffffffffffffffffffffffffff168152602001908152602001600020600601549050600060025490506000600160009054906101000a900473ffffffffffffffffffffffffffffffffffffffff16905060011515611c7c600160009054906101000a900473ffffffffffffffffffffffffffffffffffffffff16611a9d565b151503611d8d576000611cac6064611c9e600a876137c490919063ffffffff16565b61380690919063ffffffff16565b9050600060056000600160009054906101000a900473ffffffffffffffffffffffffffffffffffffffff1673ffffffffffffffffffffffffffffffffffffffff1673ffffffffffffffffffffffffffffffffffffffff16815260200190815260200160002060090160009054906101000a900473ffffffffffffffffffffffffffffffffffffffff169050611d8982600460008473ffffffffffffffffffffffffffffffffffffffff1673ffffffffffffffffffffffffffffffffffffffff1681526020019081526020016000205461381c90919063ffffffff16565b5050505b611e018360046000600160009054906101000a900473ffffffffffffffffffffffffffffffffffffffff1673ffffffffffffffffffffffffffffffffffffffff1673ffffffffffffffffffffffffffffffffffffffff1681526020019081526020016000205461381c90919063ffffffff16565b50600360009054906101000a900473ffffffffffffffffffffffffffffffffffffffff1673ffffffffffffffffffffffffffffffffffffffff1663a9059cbb600160009054906101000a900473ffffffffffffffffffffffffffffffffffffffff16856040518363ffffffff1660e01b8152600401611e819291906139ab565b6020604051808303816000875af1158015611ea0573d6000803e3d6000fd5b505050506040513d601f19601f82011682018060405250810190611ec49190613b56565b508073ffffffffffffffffffffffffffffffffffffffff167f64b75cced365878a63f6cdf5bf708186c592a3607f1dda23b1fe14550f8f12748484604051611f0d929190613b83565b60405180910390a260019350505050611f5c565b6040517f08c379a0000000000000000000000000000000000000000000000000000000008152600401611f5390614036565b60405180910390fd5b90565b600060011515600560008473ffffffffffffffffffffffffffffffffffffffff1673ffffffffffffffffffffffffffffffffffffffff16815260200190815260200160002060070160009054906101000a900460ff16151503611fc55760019050611fca565b600090505b919050565b600033905090565b6000801515612007600160009054906101000a900473ffffffffffffffffffffffffffffffffffffffff16611f5f565b151503612049576040517f08c379a000000000000000000000000000000000000000000000000000000000815260040161204090613c09565b60405180910390fd5b600073ffffffffffffffffffffffffffffffffffffffff16600160009054906101000a900473ffffffffffffffffffffffffffffffffffffffff1673ffffffffffffffffffffffffffffffffffffffff16036120da576040517f08c379a00000000000000000000000000000000000000000000000000000000081526004016120d190613c75565b60405180910390fd5b60006121538460056000600160009054906101000a900473ffffffffffffffffffffffffffffffffffffffff1673ffffffffffffffffffffffffffffffffffffffff1673ffffffffffffffffffffffffffffffffffffffff1681526020019081526020016000206002015461381c90919063ffffffff16565b9050600062015180846121669190613e2e565b6002546121739190613e70565b905060056000600160009054906101000a900473ffffffffffffffffffffffffffffffffffffffff1673ffffffffffffffffffffffffffffffffffffffff1673ffffffffffffffffffffffffffffffffffffffff16815260200190815260200160002060010154811161221b576040517f08c379a0000000000000000000000000000000000000000000000000000000008152600401612212906140c8565b60405180910390fd5b601e84148061222a5750605a84145b80612236575061016d84145b8061224257506103e884145b156128975760006060600786036122ba5761227b6103e861226d600f876137c490919063ffffffff16565b61380690919063ffffffff16565b91506040518060400160405280600981526020017f4d65746120426c756500000000000000000000000000000000000000000000008152509050612475565b60148603612329576122ea6103e86122dc6010876137c490919063ffffffff16565b61380690919063ffffffff16565b91506040518060400160405280600b81526020017f4d6574612059656c6c6f770000000000000000000000000000000000000000008152509050612474565b601e8603612398576123596103e861234b6011876137c490919063ffffffff16565b61380690919063ffffffff16565b91506040518060400160405280600b81526020017f4d65746120507572706c650000000000000000000000000000000000000000008152509050612473565b605a8603612407576123c86103e86123ba6012876137c490919063ffffffff16565b61380690919063ffffffff16565b91506040518060400160405280600a81526020017f4d657461205768697465000000000000000000000000000000000000000000008152509050612472565b60b486036124715761243660646124286002876137c490919063ffffffff16565b61380690919063ffffffff16565b91506040518060400160405280600a81526020017f4d65746120477265656e0000000000000000000000000000000000000000000081525090505b5b5b5b5b62015180866124849190613e2e565b6002546124919190613e70565b60056000600160009054906101000a900473ffffffffffffffffffffffffffffffffffffffff1673ffffffffffffffffffffffffffffffffffffffff1673ffffffffffffffffffffffffffffffffffffffff168152602001908152602001600020600001819055508560056000600160009054906101000a900473ffffffffffffffffffffffffffffffffffffffff1673ffffffffffffffffffffffffffffffffffffffff1673ffffffffffffffffffffffffffffffffffffffff168152602001908152602001600020600101819055508160056000600160009054906101000a900473ffffffffffffffffffffffffffffffffffffffff1673ffffffffffffffffffffffffffffffffffffffff1673ffffffffffffffffffffffffffffffffffffffff168152602001908152602001600020600401819055506125de86836137c490919063ffffffff16565b60056000600160009054906101000a900473ffffffffffffffffffffffffffffffffffffffff1673ffffffffffffffffffffffffffffffffffffffff1673ffffffffffffffffffffffffffffffffffffffff168152602001908152602001600020600501819055506126bd60056000600160009054906101000a900473ffffffffffffffffffffffffffffffffffffffff1673ffffffffffffffffffffffffffffffffffffffff1673ffffffffffffffffffffffffffffffffffffffff168152602001908152602001600020600501548561381c90919063ffffffff16565b60056000600160009054906101000a900473ffffffffffffffffffffffffffffffffffffffff1673ffffffffffffffffffffffffffffffffffffffff1673ffffffffffffffffffffffffffffffffffffffff168152602001908152602001600020600601819055508360056000600160009054906101000a900473ffffffffffffffffffffffffffffffffffffffff1673ffffffffffffffffffffffffffffffffffffffff1673ffffffffffffffffffffffffffffffffffffffff16815260200190815260200160002060020181905550600160056000600160009054906101000a900473ffffffffffffffffffffffffffffffffffffffff1673ffffffffffffffffffffffffffffffffffffffff1673ffffffffffffffffffffffffffffffffffffffff16815260200190815260200160002060070160006101000a81548160ff0219169083151502179055506006600160009054906101000a900473ffffffffffffffffffffffffffffffffffffffff169080600181540180825580915050600190039060005260206000200160009091909190916101000a81548173ffffffffffffffffffffffffffffffffffffffff021916908373ffffffffffffffffffffffffffffffffffffffff16021790555050506128d2565b6040517f08c379a00000000000000000000000000000000000000000000000000000000081526004016128c990613ef0565b60405180910390fd5b600360009054906101000a900473ffffffffffffffffffffffffffffffffffffffff1673ffffffffffffffffffffffffffffffffffffffff1663a9059cbb30846040518363ffffffff1660e01b815260040161292f9291906139ab565b6020604051808303816000875af115801561294e573d6000803e3d6000fd5b505050506040513d601f19601f820116820180604052508101906129729190613b56565b50600160009054906101000a900473ffffffffffffffffffffffffffffffffffffffff1673ffffffffffffffffffffffffffffffffffffffff167ecfa85518a316632d090af22064ee1a74f60fa7004539f2f1250989127e92b7858460016040516129df939291906140e8565b60405180910390a260019250505092915050565b60008260046000600160009054906101000a900473ffffffffffffffffffffffffffffffffffffffff1673ffffffffffffffffffffffffffffffffffffffff1673ffffffffffffffffffffffffffffffffffffffff168152602001908152602001600020541015612a99576040517f08c379a0000000000000000000000000000000000000000000000000000000008152600401612a9090614191565b60405180910390fd5b3373ffffffffffffffffffffffffffffffffffffffff1660008054906101000a900473ffffffffffffffffffffffffffffffffffffffff1673ffffffffffffffffffffffffffffffffffffffff1614612b27576040517f08c379a0000000000000000000000000000000000000000000000000000000008152600401612b1e90613ce1565b60405180910390fd5b600073ffffffffffffffffffffffffffffffffffffffff16600160009054906101000a900473ffffffffffffffffffffffffffffffffffffffff1673ffffffffffffffffffffffffffffffffffffffff1603612bb8576040517f08c379a0000000000000000000000000000000000000000000000000000000008152600401612baf90613d4d565b60405180910390fd5b600073ffffffffffffffffffffffffffffffffffffffff168473ffffffffffffffffffffffffffffffffffffffff1603612c27576040517f08c379a0000000000000000000000000000000000000000000000000000000008152600401612c1e90614223565b60405180910390fd5b600160009054906101000a900473ffffffffffffffffffffffffffffffffffffffff1673ffffffffffffffffffffffffffffffffffffffff168473ffffffffffffffffffffffffffffffffffffffff1603612cb7576040517f08c379a0000000000000000000000000000000000000000000000000000000008152600401612cae9061428f565b60405180910390fd5b60001515612cc485611f5f565b151503612d06576040517f08c379a0000000000000000000000000000000000000000000000000000000008152600401612cfd906142fb565b60405180910390fd5b6001151560056000600160009054906101000a900473ffffffffffffffffffffffffffffffffffffffff1673ffffffffffffffffffffffffffffffffffffffff1673ffffffffffffffffffffffffffffffffffffffff16815260200190815260200160002060070160009054906101000a900460ff16151503612dbe576040517f08c379a0000000000000000000000000000000000000000000000000000000008152600401612db590613ddf565b60405180910390fd5b601e821480612dcd5750605a82145b80612dd9575061016d82145b80612de557506103e882145b15613485576000601e8303612e2257612e1b6064612e0d6002876137c490919063ffffffff16565b61380690919063ffffffff16565b9050612ec7565b605a8303612e5957612e526103e8612e446016876137c490919063ffffffff16565b61380690919063ffffffff16565b9050612ec6565b61016d8303612e9057612e896064612e7b6003876137c490919063ffffffff16565b61380690919063ffffffff16565b9050612ec5565b6103e88303612ec457612ec16103e8612eb36023876137c490919063ffffffff16565b61380690919063ffffffff16565b90505b5b5b5b6201518083612ed69190613e2e565b600254612ee39190613e70565b60056000600160009054906101000a900473ffffffffffffffffffffffffffffffffffffffff1673ffffffffffffffffffffffffffffffffffffffff1673ffffffffffffffffffffffffffffffffffffffff168152602001908152602001600020600001819055508260056000600160009054906101000a900473ffffffffffffffffffffffffffffffffffffffff1673ffffffffffffffffffffffffffffffffffffffff1673ffffffffffffffffffffffffffffffffffffffff168152602001908152602001600020600101819055508060056000600160009054906101000a900473ffffffffffffffffffffffffffffffffffffffff1673ffffffffffffffffffffffffffffffffffffffff1673ffffffffffffffffffffffffffffffffffffffff1681526020019081526020016000206004018190555061303083826137c490919063ffffffff16565b60056000600160009054906101000a900473ffffffffffffffffffffffffffffffffffffffff1673ffffffffffffffffffffffffffffffffffffffff1673ffffffffffffffffffffffffffffffffffffffff1681526020019081526020016000206005018190555061310f60056000600160009054906101000a900473ffffffffffffffffffffffffffffffffffffffff1673ffffffffffffffffffffffffffffffffffffffff1673ffffffffffffffffffffffffffffffffffffffff168152602001908152602001600020600501548561381c90919063ffffffff16565b60056000600160009054906101000a900473ffffffffffffffffffffffffffffffffffffffff1673ffffffffffffffffffffffffffffffffffffffff1673ffffffffffffffffffffffffffffffffffffffff168152602001908152602001600020600601819055508460056000600160009054906101000a900473ffffffffffffffffffffffffffffffffffffffff1673ffffffffffffffffffffffffffffffffffffffff1673ffffffffffffffffffffffffffffffffffffffff16815260200190815260200160002060090160006101000a81548173ffffffffffffffffffffffffffffffffffffffff021916908373ffffffffffffffffffffffffffffffffffffffff1602179055508360056000600160009054906101000a900473ffffffffffffffffffffffffffffffffffffffff1673ffffffffffffffffffffffffffffffffffffffff1673ffffffffffffffffffffffffffffffffffffffff16815260200190815260200160002060020181905550600160056000600160009054906101000a900473ffffffffffffffffffffffffffffffffffffffff1673ffffffffffffffffffffffffffffffffffffffff1673ffffffffffffffffffffffffffffffffffffffff16815260200190815260200160002060090160146101000a81548160ff021916908315150217905550600160056000600160009054906101000a900473ffffffffffffffffffffffffffffffffffffffff1673ffffffffffffffffffffffffffffffffffffffff1673ffffffffffffffffffffffffffffffffffffffff16815260200190815260200160002060070160006101000a81548160ff021916908315150217905550600060056000600160009054906101000a900473ffffffffffffffffffffffffffffffffffffffff1673ffffffffffffffffffffffffffffffffffffffff1673ffffffffffffffffffffffffffffffffffffffff16815260200190815260200160002060070160016101000a81548160ff0219169083151502179055506006600160009054906101000a900473ffffffffffffffffffffffffffffffffffffffff169080600181540180825580915050600190039060005260206000200160009091909190916101000a81548173ffffffffffffffffffffffffffffffffffffffff021916908373ffffffffffffffffffffffffffffffffffffffff160217905550506134c0565b6040517f08c379a00000000000000000000000000000000000000000000000000000000081526004016134b790613ef0565b60405180910390fd5b600360009054906101000a900473ffffffffffffffffffffffffffffffffffffffff1673ffffffffffffffffffffffffffffffffffffffff1663a9059cbb30856040518363ffffffff1660e01b815260040161351d9291906139ab565b6020604051808303816000875af115801561353c573d6000803e3d6000fd5b505050506040513d601f19601f820116820180604052508101906135609190613b56565b50600060056000600160009054906101000a900473ffffffffffffffffffffffffffffffffffffffff1673ffffffffffffffffffffffffffffffffffffffff1673ffffffffffffffffffffffffffffffffffffffff168152602001908152602001600020600401549050600060056000600160009054906101000a900473ffffffffffffffffffffffffffffffffffffffff1673ffffffffffffffffffffffffffffffffffffffff1673ffffffffffffffffffffffffffffffffffffffff168152602001908152602001600020600601549050600060056000600160009054906101000a900473ffffffffffffffffffffffffffffffffffffffff1673ffffffffffffffffffffffffffffffffffffffff1673ffffffffffffffffffffffffffffffffffffffff168152602001908152602001600020600501549050600060056000600160009054906101000a900473ffffffffffffffffffffffffffffffffffffffff1673ffffffffffffffffffffffffffffffffffffffff1673ffffffffffffffffffffffffffffffffffffffff16815260200190815260200160002060090160009054906101000a900473ffffffffffffffffffffffffffffffffffffffff169050600160009054906101000a900473ffffffffffffffffffffffffffffffffffffffff1673ffffffffffffffffffffffffffffffffffffffff167f413117a54630b8d4e0b0869a46b11d13b045b3c6a2ad04cf6675c8daffbeab4a8789878688876001600060405161379d98979695949392919061431b565b60405180910390a260016006805490506137b79190613f7f565b9450505050509392505050565b60008083036137d65760009050613800565b81836137e29190613e2e565b90508183826137f191906143c8565b146137ff576137fe6143f9565b5b5b92915050565b6000818361381491906143c8565b905092915050565b6000818361382a9190613e70565b90508281101561383d5761383c6143f9565b5b92915050565b6000819050919050565b61385681613843565b82525050565b6000602082019050613871600083018461384d565b92915050565b600073ffffffffffffffffffffffffffffffffffffffff82169050919050565b6000819050919050565b60006138bc6138b76138b284613877565b613897565b613877565b9050919050565b60006138ce826138a1565b9050919050565b60006138e0826138c3565b9050919050565b6138f0816138d5565b82525050565b600060208201905061390b60008301846138e7565b92915050565b600061391c82613877565b9050919050565b61392c81613911565b82525050565b60006020820190506139476000830184613923565b92915050565b600080fd5b61395b81613911565b811461396657600080fd5b50565b60008135905061397881613952565b92915050565b6000602082840312156139945761399361394d565b5b60006139a284828501613969565b91505092915050565b60006040820190506139c06000830185613923565b6139cd602083018461384d565b9392505050565b6139dd81613843565b81146139e857600080fd5b50565b6000813590506139fa816139d4565b92915050565b60008060408385031215613a1757613a1661394d565b5b6000613a25858286016139eb565b9250506020613a36858286016139eb565b9150509250929050565b600060c082019050613a55600083018961384d565b613a62602083018861384d565b613a6f604083018761384d565b613a7c606083018661384d565b613a89608083018561384d565b613a9660a083018461384d565b979650505050505050565b60008115159050919050565b613ab681613aa1565b82525050565b6000602082019050613ad16000830184613aad565b92915050565b600080600060608486031215613af057613aef61394d565b5b6000613afe86828701613969565b9350506020613b0f868287016139eb565b9250506040613b20868287016139eb565b9150509250925092565b613b3381613aa1565b8114613b3e57600080fd5b50565b600081519050613b5081613b2a565b92915050565b600060208284031215613b6c57613b6b61394d565b5b6000613b7a84828501613b41565b91505092915050565b6000604082019050613b98600083018561384d565b613ba5602083018461384d565b9392505050565b600082825260208201905092915050565b7f596f75206861766520746f207374616b65206669727374000000000000000000600082015250565b6000613bf3601783613bac565b9150613bfe82613bbd565b602082019050919050565b60006020820190508181036000830152613c2281613be6565b9050919050565b7f5374616b65722063616e6e6f742062652061207a65726f000000000000000000600082015250565b6000613c5f601783613bac565b9150613c6a82613c29565b602082019050919050565b60006020820190508181036000830152613c8e81613c52565b9050919050565b7f4f6e6c79206163636f756e74206f776e65722063616e207374616b6500000000600082015250565b6000613ccb601c83613bac565b9150613cd682613c95565b602082019050919050565b60006020820190508181036000830152613cfa81613cbe565b9050919050565b7f5374616b65722063616e6e6f742062652061207a65726f206164647265737300600082015250565b6000613d37601f83613bac565b9150613d4282613d01565b602082019050919050565b60006020820190508181036000830152613d6681613d2a565b9050919050565b7f596f752063757272656e746c7920686176652061207374616b652072756e6e6960008201527f6e672c20796f752063616e206f6e6c7920757067726164650000000000000000602082015250565b6000613dc9603883613bac565b9150613dd482613d6d565b604082019050919050565b60006020820190508181036000830152613df881613dbc565b9050919050565b7f4e487b7100000000000000000000000000000000000000000000000000000000600052601160045260246000fd5b6000613e3982613843565b9150613e4483613843565b9250828202613e5281613843565b91508282048414831517613e6957613e68613dff565b5b5092915050565b6000613e7b82613843565b9150613e8683613843565b9250828201905080821115613e9e57613e9d613dff565b5b92915050565b7f696e76616c6964207374616b6520706572696f64000000000000000000000000600082015250565b6000613eda601483613bac565b9150613ee582613ea4565b602082019050919050565b60006020820190508181036000830152613f0981613ecd565b9050919050565b600060e082019050613f25600083018a61384d565b613f32602083018961384d565b613f3f604083018861384d565b613f4c606083018761384d565b613f59608083018661384d565b613f6660a0830185613aad565b613f7360c0830184613aad565b98975050505050505050565b6000613f8a82613843565b9150613f9583613843565b9250828203905081811115613fad57613fac613dff565b5b92915050565b6000606082019050613fc8600083018661384d565b613fd5602083018561384d565b613fe2604083018461384d565b949350505050565b7f5769746864726177616c2054696d65204e6f7420526561636865640000000000600082015250565b6000614020601b83613bac565b915061402b82613fea565b602082019050919050565b6000602082019050818103600083015261404f81614013565b9050919050565b7f63616e6e6f74207570677261646520746f207468652073616d65206c6576656c60008201527f206f722061206c6f776572206c6576656c000000000000000000000000000000602082015250565b60006140b2603183613bac565b91506140bd82614056565b604082019050919050565b600060208201905081810360008301526140e1816140a5565b9050919050565b60006060820190506140fd600083018661384d565b61410a602083018561384d565b6141176040830184613aad565b949350505050565b7f7374616b6572206d757374206861766520656e6f75676820746f6b656e73207460008201527f6f207374616b6500000000000000000000000000000000000000000000000000602082015250565b600061417b602783613bac565b91506141868261411f565b604082019050919050565b600060208201905081810360008301526141aa8161416e565b9050919050565b7f52656665727265722063616e6e6f742062652061207a65726f2061646472657360008201527f7300000000000000000000000000000000000000000000000000000000000000602082015250565b600061420d602183613bac565b9150614218826141b1565b604082019050919050565b6000602082019050818103600083015261423c81614200565b9050919050565b7f596f752063616e6e6f7420726566657220796f757273656c6600000000000000600082015250565b6000614279601983613bac565b915061428482614243565b602082019050919050565b600060208201905081810360008301526142a88161426c565b9050919050565b7f5265666572726572206861766520746f207374616b6520666972737400000000600082015250565b60006142e5601c83613bac565b91506142f0826142af565b602082019050919050565b60006020820190508181036000830152614314816142d8565b9050919050565b600061010082019050614331600083018b61384d565b61433e602083018a61384d565b61434b604083018961384d565b614358606083018861384d565b614365608083018761384d565b61437260a0830186613923565b61437f60c0830185613aad565b61438c60e0830184613aad565b9998505050505050505050565b7f4e487b7100000000000000000000000000000000000000000000000000000000600052601260045260246000fd5b60006143d382613843565b91506143de83613843565b9250826143ee576143ed614399565b5b828204905092915050565b7f4e487b7100000000000000000000000000000000000000000000000000000000600052600160045260246000fdfea2646970667358221220eed6adc4dc63077b4c34c4fcc513f733509089c3a6959871208a432bcb7ea33664736f6c63430008140033",
  "linkReferences": {},
  "deployedLinkReferences": {}
}